{"abi":[{"type":"constructor","inputs":[],"stateMutability":"nonpayable"},{"type":"function","name":"addCar","inputs":[{"name":"colour","type":"bytes3","internalType":"bytes3"},{"name":"doors","type":"uint8","internalType":"uint8"}],"outputs":[{"name":"carId","type":"uint256","internalType":"uint256"}],"stateMutability":"payable"},{"type":"function","name":"cars","inputs":[{"name":"","type":"uint256","internalType":"uint256"}],"outputs":[{"name":"colour","type":"bytes3","internalType":"bytes3"},{"name":"doors","type":"uint8","internalType":"uint8"},{"name":"status","type":"uint8","internalType":"enum Cars.CarStatus"},{"name":"owner","type":"address","internalType":"address"}],"stateMutability":"view"},{"type":"function","name":"numCars","inputs":[],"outputs":[{"name":"","type":"uint256","internalType":"uint256"}],"stateMutability":"view"},{"type":"function","name":"statusChange","inputs":[{"name":"carId","type":"uint256","internalType":"uint256"},{"name":"newStatus","type":"uint8","internalType":"enum Cars.CarStatus"}],"outputs":[],"stateMutability":"nonpayable"}],"bytecode":{"object":"0x60806040526000805534801561001457600080fd5b50610986806100246000396000f3fe60806040526004361061003f5760003560e01c806317f1c6e3146100445780632419e9c81461006d578063dc6b1c9d14610098578063f7746e36146100c8575b600080fd5b34801561005057600080fd5b5061006b60048036038101906100669190610501565b610108565b005b34801561007957600080fd5b50610082610279565b60405161008f9190610550565b60405180910390f35b6100b260048036038101906100ad91906105fc565b61027f565b6040516100bf9190610550565b60405180910390f35b3480156100d457600080fd5b506100ef60048036038101906100ea919061063c565b61042a565b6040516100ff949392919061073f565b60405180910390f35b813373ffffffffffffffffffffffffffffffffffffffff166001600083815260200190815260200160002060000160059054906101000a900473ffffffffffffffffffffffffffffffffffffffff1673ffffffffffffffffffffffffffffffffffffffff16146101ad576040517f08c379a00000000000000000000000000000000000000000000000000000000081526004016101a4906107e1565b60405180910390fd5b8160018111156101c0576101bf610687565b5b6001600085815260200190815260200160002060000160049054906101000a900460ff1660018111156101f6576101f5610687565b5b03610236576040517f08c379a000000000000000000000000000000000000000000000000000000000815260040161022d9061084d565b60405180910390fd5b816001600085815260200190815260200160002060000160046101000a81548160ff0219169083600181111561026f5761026e610687565b5b0217905550505050565b60005481565b600067016345785d8a000034116102cb576040517f08c379a00000000000000000000000000000000000000000000000000000000081526004016102c2906108b9565b60405180910390fd5b60008081546102d990610908565b919050819055905060006040518060800160405280857cffffffffffffffffffffffffffffffffffffffffffffffffffffffffff191681526020018460ff1681526020016001808111156103305761032f610687565b5b81526020013373ffffffffffffffffffffffffffffffffffffffff168152509050806001600084815260200190815260200160002060008201518160000160006101000a81548162ffffff021916908360e81c021790555060208201518160000160036101000a81548160ff021916908360ff16021790555060408201518160000160046101000a81548160ff021916908360018111156103d4576103d3610687565b5b021790555060608201518160000160056101000a81548173ffffffffffffffffffffffffffffffffffffffff021916908373ffffffffffffffffffffffffffffffffffffffff1602179055509050505092915050565b60016020528060005260406000206000915090508060000160009054906101000a900460e81b908060000160039054906101000a900460ff16908060000160049054906101000a900460ff16908060000160059054906101000a900473ffffffffffffffffffffffffffffffffffffffff16905084565b600080fd5b6000819050919050565b6104b9816104a6565b81146104c457600080fd5b50565b6000813590506104d6816104b0565b92915050565b600281106104e957600080fd5b50565b6000813590506104fb816104dc565b92915050565b60008060408385031215610518576105176104a1565b5b6000610526858286016104c7565b9250506020610537858286016104ec565b9150509250929050565b61054a816104a6565b82525050565b60006020820190506105656000830184610541565b92915050565b60007fffffff000000000000000000000000000000000000000000000000000000000082169050919050565b6105a08161056b565b81146105ab57600080fd5b50565b6000813590506105bd81610597565b92915050565b600060ff82169050919050565b6105d9816105c3565b81146105e457600080fd5b50565b6000813590506105f6816105d0565b92915050565b60008060408385031215610613576106126104a1565b5b6000610621858286016105ae565b9250506020610632858286016105e7565b9150509250929050565b600060208284031215610652576106516104a1565b5b6000610660848285016104c7565b91505092915050565b6106728161056b565b82525050565b610681816105c3565b82525050565b7f4e487b7100000000000000000000000000000000000000000000000000000000600052602160045260246000fd5b600281106106c7576106c6610687565b5b50565b60008190506106d8826106b6565b919050565b60006106e8826106ca565b9050919050565b6106f8816106dd565b82525050565b600073ffffffffffffffffffffffffffffffffffffffff82169050919050565b6000610729826106fe565b9050919050565b6107398161071e565b82525050565b60006080820190506107546000830187610669565b6107616020830186610678565b61076e60408301856106ef565b61077b6060830184610730565b95945050505050565b600082825260208201905092915050565b7f6f6e6c79206f776e657200000000000000000000000000000000000000000000600082015250565b60006107cb600a83610784565b91506107d682610795565b602082019050919050565b600060208201905081810360008301526107fa816107be565b9050919050565b7f6e6f206368616e67650000000000000000000000000000000000000000000000600082015250565b6000610837600983610784565b915061084282610801565b602082019050919050565b600060208201905081810360008301526108668161082a565b9050919050565b7f7265717569726573207061796d656e7400000000000000000000000000000000600082015250565b60006108a3601083610784565b91506108ae8261086d565b602082019050919050565b600060208201905081810360008301526108d281610896565b9050919050565b7f4e487b7100000000000000000000000000000000000000000000000000000000600052601160045260246000fd5b6000610913826104a6565b91507fffffffffffffffffffffffffffffffffffffffffffffffffffffffffffffffff8203610945576109446108d9565b5b60018201905091905056fea26469706673582212200b1dd88ff036528670089c9140ce8cf75ea83d5a756e2e99102e82afdd41e1c664736f6c63430008130033","linkReferences":{}},"methodIdentifiers":{"addCar(bytes3,uint8)":"dc6b1c9d","cars(uint256)":"f7746e36","numCars()":"2419e9c8","statusChange(uint256,uint8)":"17f1c6e3"},"id":0}