{"abi":[{"type":"constructor","inputs":[],"stateMutability":"nonpayable"},{"type":"function","name":"myCar","inputs":[],"outputs":[{"name":"colour","type":"bytes3","internalType":"bytes3"},{"name":"doors","type":"uint8","internalType":"uint8"},{"name":"status","type":"uint8","internalType":"enum Cars.CarStatus"},{"name":"owner","type":"address","internalType":"address"}],"stateMutability":"view"}],"bytecode":{"object":"0x608060405234801561001057600080fd5b50610240806100206000396000f3fe608060405234801561001057600080fd5b506004361061002b5760003560e01c80639cdde81314610030575b600080fd5b610038610051565b60405161004894939291906101c5565b60405180910390f35b60008060000160009054906101000a900460e81b908060000160039054906101000a900460ff16908060000160049054906101000a900460ff16908060000160059054906101000a900473ffffffffffffffffffffffffffffffffffffffff16905084565b60007fffffff000000000000000000000000000000000000000000000000000000000082169050919050565b6100eb816100b6565b82525050565b600060ff82169050919050565b610107816100f1565b82525050565b7f4e487b7100000000000000000000000000000000000000000000000000000000600052602160045260246000fd5b6002811061014d5761014c61010d565b5b50565b600081905061015e8261013c565b919050565b600061016e82610150565b9050919050565b61017e81610163565b82525050565b600073ffffffffffffffffffffffffffffffffffffffff82169050919050565b60006101af82610184565b9050919050565b6101bf816101a4565b82525050565b60006080820190506101da60008301876100e2565b6101e760208301866100fe565b6101f46040830185610175565b61020160608301846101b6565b9594505050505056fea2646970667358221220d0b19b46d28f9599bb41eb62b612a08f644a79b75e8a0a374f1241e07253f03764736f6c63430008130033","linkReferences":{}},"methodIdentifiers":{"myCar()":"9cdde813"},"id":0}