{"abi":[{"type":"function","name":"demo","inputs":[],"outputs":[],"stateMutability":"nonpayable"}],"bytecode":{"object":"0x6080604052348015600f57600080fd5b50606d80601d6000396000f3fe6080604052348015600f57600080fd5b506004361060285760003560e01c806301725a0b14602d575b600080fd5b60336035565b005b56fea26469706673582212208da6490b69c0a50e5af4b62d0b5c5a24a86a78a5def80b7d7ab5ed80b48c4f9764736f6c63430008130033","linkReferences":{}},"methodIdentifiers":{"demo()":"01725a0b"},"id":0}