{"abi":[{"type":"constructor","inputs":[],"stateMutability":"nonpayable"},{"type":"function","name":"addCar","inputs":[{"name":"_colour","type":"bytes3","internalType":"bytes3"},{"name":"_doors","type":"uint8","internalType":"uint8"}],"outputs":[{"name":"carId","type":"uint256","internalType":"uint256"}],"stateMutability":"nonpayable"},{"type":"function","name":"cars","inputs":[{"name":"","type":"uint256","internalType":"uint256"}],"outputs":[{"name":"colour","type":"bytes3","internalType":"bytes3"},{"name":"doors","type":"uint8","internalType":"uint8"},{"name":"status","type":"uint8","internalType":"enum Cars.CarStatus"},{"name":"owner","type":"address","internalType":"address"}],"stateMutability":"view"},{"type":"function","name":"numCars","inputs":[],"outputs":[{"name":"","type":"uint256","internalType":"uint256"}],"stateMutability":"view"}],"bytecode":{"object":"0x60806040526000805534801561001457600080fd5b506105d0806100246000396000f3fe608060405234801561001057600080fd5b50600436106100415760003560e01c80632419e9c814610046578063dc6b1c9d14610064578063f7746e3614610094575b600080fd5b61004e6100c7565b60405161005b91906102be565b60405180910390f35b61007e6004803603810190610079919061036f565b6100cd565b60405161008b91906102be565b60405180910390f35b6100ae60048036038101906100a991906103db565b61022e565b6040516100be94939291906104de565b60405180910390f35b60005481565b600080600081546100dd90610552565b919050819055905060006040518060800160405280857cffffffffffffffffffffffffffffffffffffffffffffffffffffffffff191681526020018460ff16815260200160018081111561013457610133610426565b5b81526020013373ffffffffffffffffffffffffffffffffffffffff168152509050806001600084815260200190815260200160002060008201518160000160006101000a81548162ffffff021916908360e81c021790555060208201518160000160036101000a81548160ff021916908360ff16021790555060408201518160000160046101000a81548160ff021916908360018111156101d8576101d7610426565b5b021790555060608201518160000160056101000a81548173ffffffffffffffffffffffffffffffffffffffff021916908373ffffffffffffffffffffffffffffffffffffffff1602179055509050505092915050565b60016020528060005260406000206000915090508060000160009054906101000a900460e81b908060000160039054906101000a900460ff16908060000160049054906101000a900460ff16908060000160059054906101000a900473ffffffffffffffffffffffffffffffffffffffff16905084565b6000819050919050565b6102b8816102a5565b82525050565b60006020820190506102d360008301846102af565b92915050565b600080fd5b60007fffffff000000000000000000000000000000000000000000000000000000000082169050919050565b610313816102de565b811461031e57600080fd5b50565b6000813590506103308161030a565b92915050565b600060ff82169050919050565b61034c81610336565b811461035757600080fd5b50565b60008135905061036981610343565b92915050565b60008060408385031215610386576103856102d9565b5b600061039485828601610321565b92505060206103a58582860161035a565b9150509250929050565b6103b8816102a5565b81146103c357600080fd5b50565b6000813590506103d5816103af565b92915050565b6000602082840312156103f1576103f06102d9565b5b60006103ff848285016103c6565b91505092915050565b610411816102de565b82525050565b61042081610336565b82525050565b7f4e487b7100000000000000000000000000000000000000000000000000000000600052602160045260246000fd5b6002811061046657610465610426565b5b50565b600081905061047782610455565b919050565b600061048782610469565b9050919050565b6104978161047c565b82525050565b600073ffffffffffffffffffffffffffffffffffffffff82169050919050565b60006104c88261049d565b9050919050565b6104d8816104bd565b82525050565b60006080820190506104f36000830187610408565b6105006020830186610417565b61050d604083018561048e565b61051a60608301846104cf565b95945050505050565b7f4e487b7100000000000000000000000000000000000000000000000000000000600052601160045260246000fd5b600061055d826102a5565b91507fffffffffffffffffffffffffffffffffffffffffffffffffffffffffffffffff820361058f5761058e610523565b5b60018201905091905056fea2646970667358221220cfdadfbd2527388d3e9ce56d7a9e464afdd8076e168102337f74a360d645bc2a64736f6c63430008130033","linkReferences":{}},"methodIdentifiers":{"addCar(bytes3,uint8)":"dc6b1c9d","cars(uint256)":"f7746e36","numCars()":"2419e9c8"},"id":0}