{"abi":[{"type":"constructor","inputs":[],"stateMutability":"nonpayable"},{"type":"function","name":"cars","inputs":[{"name":"","type":"uint256","internalType":"uint256"}],"outputs":[{"name":"colour","type":"bytes3","internalType":"bytes3"},{"name":"doors","type":"uint8","internalType":"uint8"},{"name":"status","type":"uint8","internalType":"enum Cars.CarStatus"},{"name":"owner","type":"address","internalType":"address"}],"stateMutability":"view"},{"type":"function","name":"numCars","inputs":[],"outputs":[{"name":"","type":"uint256","internalType":"uint256"}],"stateMutability":"view"}],"bytecode":{"object":"0x60806040526000805534801561001457600080fd5b50610325806100246000396000f3fe608060405234801561001057600080fd5b50600436106100365760003560e01c80632419e9c81461003b578063f7746e3614610059575b600080fd5b61004361008c565b6040516100509190610122565b60405180910390f35b610073600480360381019061006e919061016e565b610092565b60405161008394939291906102aa565b60405180910390f35b60005481565b60016020528060005260406000206000915090508060000160009054906101000a900460e81b908060000160039054906101000a900460ff16908060000160049054906101000a900460ff16908060000160059054906101000a900473ffffffffffffffffffffffffffffffffffffffff16905084565b6000819050919050565b61011c81610109565b82525050565b60006020820190506101376000830184610113565b92915050565b600080fd5b61014b81610109565b811461015657600080fd5b50565b60008135905061016881610142565b92915050565b6000602082840312156101845761018361013d565b5b600061019284828501610159565b91505092915050565b60007fffffff000000000000000000000000000000000000000000000000000000000082169050919050565b6101d08161019b565b82525050565b600060ff82169050919050565b6101ec816101d6565b82525050565b7f4e487b7100000000000000000000000000000000000000000000000000000000600052602160045260246000fd5b60028110610232576102316101f2565b5b50565b600081905061024382610221565b919050565b600061025382610235565b9050919050565b61026381610248565b82525050565b600073ffffffffffffffffffffffffffffffffffffffff82169050919050565b600061029482610269565b9050919050565b6102a481610289565b82525050565b60006080820190506102bf60008301876101c7565b6102cc60208301866101e3565b6102d9604083018561025a565b6102e6606083018461029b565b9594505050505056fea2646970667358221220e9f41948e2fcf3c6802522a9d99c7489949d43f5ff3b33ccf1cb0177efb991e664736f6c63430008130033","linkReferences":{}},"methodIdentifiers":{"cars(uint256)":"f7746e36","numCars()":"2419e9c8"},"id":0}